:10000000BFC00000B7C20000E1C00000DFC00000B8
:10001000DDC00000DBC00000D9C0000087C60000C2
:10002000D5C000005CC60000D1C00000CFC00000F9
:10003000CDC00000CBC0000003C60000C7C0000058
:10004000D8C50000C3C00000C1C000004CC70000FC
:10005000BDC00000BBC00000B9C00000B7C00000B8
:10006000B5C00000B3C00000FC06020708070E0779
:1000700014071A07200726072C073207005EBCE288
:10008000613FDD83C29C7E20A3FD1F419DC3217F74
:10009000FCA2401E5F01E3BD3E6082DC237D9FC168
:1000A000421CFEA0E1BF5D0380DE3C62BEE0025C5C
:1000B000DF81633D7C22C09E1D43A1FF4618FAA448
:1000C00027799BC584DA3866E5BB5907DB85673934
:1000D000BAE406581947A5FB7826C49A653BD98728
:1000E000045AB8E6A7F91B45C6987A24F8A6441A1C
:1000F00099C7257B3A6486D85B05E7B98CD2306E08
:10010000EDB3510F4E10F2AC2F7193CD114FADF3F3
:10011000702ECC92D38D6F31B2EC0E50AFF1134DE7
:10012000CE90722C6D33D18F0C52B0EE326C8ED0DB
:10013000530DEFB1F0AE4C1291CF2D73CA947628C7
:10014000ABF517490856B4EA6937D58B5709EBB5B3
:1001500036688AD495CB2977F4AA4816E9B7550BA7
:1001600088D6346A2B7597C94A14F6A8742AC8969B
:10017000154BA9F7B6E80A54D7896B35BE05E805D3
:1001800011241FBECFEFD8E0DEBFCDBF11E0A0E04D
:10019000B1E0E2E6F7E102C005900D92A83BB1079D
:1001A000D9F726E0A8EBB1E001C01D92A033B20759
:1001B000E1F710E0CFEBD0E003C02197FE01C6D6F7
:1001C000CE3BD107D1F70FD50C94A50B19CFE091F9
:1001D000F905F091FA0509950895409101065091AD
:1001E000020626EC31E061E08EEB72C20895409188
:1001F000F7055091F80527EE30E061E084E468C22D
:1002000008950F931F93CF93DF9307EF15E0F80145
:10021000A481B581C1E0D6E0EC81FD81818190E0CF
:10022000982F88272081822B8D939C938C819D8190
:100230002BD71D821C82D8011296ED91FC91139749
:100240000995DF91CF911F910F910895E1E0F6E0BC
:1002500033832283778366839183808355834483AA
:100260004DEE50E0DCC10895DA01E7EFF5E03383AD
:10027000228391838083662321F067EF70E0DAC1E7
:1002800008955093FE054093FD0547EF50E0BD01F2
:10029000C6C10895EF92FF920F931F93CF93DF9300
:1002A000EC017B01E7EFF5E0138302835583448380
:1002B00091838083778366833187208789E090E00C
:1002C0004BD68C01892B09F47CD121E031E0A801C7
:1002D000B701CE01BBDFDF91CF911F910F91FF904E
:1002E000EF9008952FEF260F662361F0A82FB92F06
:1002F00080E0ED91E827F0E0E458FF4F8491215031
:10030000C0F7089580E00895CF93DF93C1E0D6E071
:1003100068E08C819D81E6DFEC81FD819085891705
:1003200039F0E091FF05F091000681E0808305C07F
:10033000E091FF05F09100061082E0910306F09134
:1003400004060995DF91CF910895811105C0909120
:10035000B8019930B0F401C090E0E1E0F6E04081EE
:1003600051810480F581E02D81E0890F8093B801EF
:1003700023EC31E061E0DF01A90FB11DCD0164C1C3
:100380000895C2CF089580E0E0CF089581E0DDCFE9
:1003900008958827987F892B11F48BE208958DE2C8
:1003A000089599231CF491958195910992958295D0
:1003B0008F7089279F7089278F77089599231CF460
:1003C0009195819591098F70992721E732E0AC01D1
:1003D000429FC001439F900D529F900D112408959C
:1003E000FC0120813181C9010196918380833370A2
:1003F000E20FF31F64830895FC0122813381C90158
:100400000196938382833370E20FF31F84810895F2
:10041000FC018081918122813381821B930B08959D
:10042000FC01A281B3819C9121E030E0068002C0F2
:10043000220F331F0A94E2F7892F90E028233923F3
:1004400081E0121613060CF4089580E00895DC0193
:10045000ED91FC911197408121E030E0B9011696B1
:100460000C9002C0660F771F0A94E2F7CB018095CB
:10047000842380830895FC01A081B1814C9121E007
:1004800030E0C901068002C0880F991F0A94E2F784
:10049000842B8C93A481B5818C91068002C0220F9D
:1004A000331F0A94E2F7209528232C930895DC014A
:1004B0001496ED91FC911597408121E030E0B9014F
:1004C00016960C9002C0660F771F0A94E2F7CB01D4
:1004D0008095842380830895FC01A9E6B0E08C9187
:1004E0009781990F23E030E001C0220F9A95EAF737
:1004F000209528232C939C918781880F01C0660F3B
:100500008A95EAF7692B6C938DB321E030E0078080
:1005100002C0220F331F0A94E2F7282B2DBBE7817C
:10052000F0E0EE0FFF1FE754FE4F51834083089524
:10053000FC019DB321E030E0A901078002C0440F17
:10054000551F0A94E2F7842F809589238DBB8CB3C5
:10055000078002C0220F331F0A94E2F72095282358
:100560002CBBE781F0E0EE0FFF1FE754FE4F118236
:10057000108208951F920F920FB60F9211242F939D
:100580003F934F935F936F937F938F939F93AF931B
:10059000BF93EF93FF93E091B901F091BA010995F0
:1005A000FF91EF91BF91AF919F918F917F916F914B
:1005B0005F914F913F912F910F900FBE0F901F9021
:1005C0001895F894FFCF992314F08BE208958DE2EB
:1005D000089599231CF4919581959109807F9F77C7
:1005E00095958795959587959595879595958795F3
:1005F000089599231CF49195819591098C70992700
:10060000959587959595879524EC39E0AC01429FA7
:10061000C001439F900D529F900D11240895E9E071
:10062000F6E093838283558344837183608363EC14
:1006300073E091C1E9E0F6E093838283758364837C
:100640006DEC73E088C10895662389F01092CA01A9
:100650009093C9018093C801FC0110823093C701B7
:100660002093C6015093C5014093C40118C0E09186
:10067000C801F091C9012091CA018091C30190E0A5
:10068000022E02C0880F991F0A94E2F79081892BED
:10069000808381E0820F8093CA01883050F44FE557
:1006A00053E063EC71E08091C4019091C501CAC030
:1006B0000895E091C601F091C7010995089520E0E1
:1006C00030E040E050E060E080E090E0BDCF089591
:1006D000662361F01092C2018093C1013093C00182
:1006E0002093BF015093BE014093BD018091C20190
:1006F0008830E0F48091C1012091C20191E0920F15
:100700009093C20190E002C0959587952A95E2F7F3
:1007100067ED73E080FF05C08091BD019091BE013F
:10072000CCC08091BD019091BE01B4C0E091BF01E9
:10073000F091C001099481111092CB018091CB01FD
:100740008830A8F4E9E0F6E0428153810190F0811D
:10075000E02D8091CB0191E0980F9093CB01E80FB1
:10076000F11D2DEB33E061E08081B2CF0895E0917F
:100770000D06F0910E060995089580E0DCCF0895EE
:1007800081E0D9CF089540910B0650910C0620ECE2
:1007900033E061E085E59CCF0895E9E0F6E024814F
:1007A00035814281538161E08CEC92CF089520E045
:1007B00030E040E050E060E080E08ACF0895FBD276
:1007C000E0911106F091120609950895F4D2E09196
:1007D0001106F091120609950895CF93DF93EBD29D
:1007E000CFE0D6E08881998132DEEA81FB810995EC
:1007F000DF91CF910895CF93DF93CFE0D6E088814A
:10080000998125DED8D28AE08A95F1F700C0EA8185
:10081000FB810995DF91CF9108958091CC018823C8
:1008200031F0E0911106F091120609950895C9CEB4
:10083000089580910F06909110067ADE81E08093F2
:10084000CC010895EF92FF920F931F93CF93DF9304
:10085000EC017B018A010FDE8AE08A95F1F700C086
:10086000CE01F5DDE5E3EA95F1F70000CE01D8DD34
:10087000F701808310931206009311068FED93E029
:1008800029D2A4D2A9D2DF91CF911F910F91FF90CD
:10089000EF900895CF93DF93EC01EFE0F6E09183C2
:1008A0008083738362838BEF93E014D28FD2CE0167
:1008B000E2DD92D2DF91CF910895CF93DF93EC01E7
:1008C000EFE0F6E09183808373836283D4DD85E07B
:1008D0008A95F1F70000CE01BADD86EE93E0FAD1F9
:1008E00075D2DF91CF9178C2CF93DF93EC01EFE027
:1008F000F6E091838083738362838DE094E0EAD194
:100900005FD26AD2CE018CDD8111FCCF49E154E087
:1009100063E0CE01E1DDDF91CF910895E4E1F6E0FF
:100920006281738180819181DFCF0895CF93DF93BE
:10093000EC011092CC01EFE0F6E0918380837383A9
:1009400062838DEE93E0C6D1CE0195DD39D244D2DB
:10095000DF91CF910895E4E1F6E091838083738382
:1009600062836EE874E0E2CF0895E091CD01F0E09B
:10097000EE0FFF1FE85FFE4F408151812DE735E00C
:1009800060E08EE191E070CC0895000008950F932F
:100990001F93CF93DF938091CD0190E0880F991F33
:1009A000FC01EA52FE4FC081D181FC01E85FFE4F9D
:1009B0000190F081E02D8081883249F4CE01E9DC9C
:1009C000182FCE01EEDC082FCE01F8DC10C08B33DF
:1009D00049F4CE01F8DD182FCE01FBDD082FCE0142
:1009E00008DE05C0EEDD8FEF9FEF0FEF1FE32091D4
:1009F000CD01E22FF0E0E75EF94F3081311103C005
:100A000030E340E002C035E440E04F933F939F93D2
:100A10008F931F920F931F921F931F922F9386E223
:100A200091E09F938F938091D5018F938091D40112
:100A30008F93B3D38091D4019091D501FC010190A3
:100A40000020E9F73197BF01681B790B31D28DB7D0
:100A50009EB70E960FB6F8949EBF0FBE8DBFDF9166
:100A6000CF911F910F9108950F931F938091CD0106
:100A700090E09C01275E394F41E0F9014083880FE7
:100A8000991FAC014A525E4FFC01E85FFE4F608146
:100A9000718105EB14E08EE191E0FCDB1F910F9179
:100AA00008958091CE019091CF01A091D001B09195
:100AB000D1010196A11DB11D8093CE019093CF016C
:100AC000A093D001B093D101CFCF089580910601BA
:100AD00090910701892B39F480ED97E090930701FD
:100AE00080930601DEDF8091060190910701019756
:100AF000909307018093060108958091CD018A307B
:100B000040F445DF8091CD018F5F8093CD01ACCF64
:100B100008953DDF64E084E491E0CAD18091CE0184
:100B20009091CF01A091D001B091D101BF93AF932B
:100B30009F938F9389E491E09F938F938091D3014A
:100B40008F938091D2018F9328D38091D20190917D
:100B5000D301FC0101900020E9F73197BF01681B28
:100B6000790BA6D11092CD0110DF8DB79EB70896F4
:100B70000FB6F8949EBF0FBE8DBF08958EE191E031
:100B800066DC8EE191E093DC81E075D18FE190E04D
:100B9000E3D19093D5018093D4018BE190E0DCD137
:100BA0009093D3018093D20182E071D086E695E0E4
:100BB0001BD085D089D082E0E0D01092CE01109277
:100BC000CF011092D0011092D10178944DCF0895A9
:100BD0008091D4019091D50157D28091D20190910A
:100BE000D30152C20895FFCF909327068093260623
:100BF00008951F920F920FB60F9211242F933F93D7
:100C00004F935F936F937F938F939F93AF93BF9314
:100C1000EF93FF93E0912406F09125060995FF914B
:100C2000EF91BF91AF919F918F917F916F915F9164
:100C30004F913F912F910F900FBE0F901F901895DD
:100C40001F920F920FB60F9211242F933F934F9341
:100C50005F936F937F938F939F93AF93BF93EF9324
:100C6000FF93E0912606F09127060995FF91EF91F9
:100C7000BF91AF919F918F917F916F915F914F91B4
:100C80003F912F910F900FBE0F901F90189594B524
:100C90009C7F94BD95B5977F95BD94B5282F237003
:100CA000922B94BD95B58470880F892B85BD0895CE
:100CB00095B5987F95BD95B5892B85BD08958CE731
:100CC00087BD83E0F5CF0895EEE6F0E08081826095
:100CD00080830895909329068093280608951F9293
:100CE0000F920FB60F9211242F933F934F935F9360
:100CF0006F937F938F939F93AF93BF93EF93FF93E4
:100D0000E0912A06F0912B060995FF91EF91BF9192
:100D1000AF919F918F917F916F915F914F913F9193
:100D20002F910F900FBE0F901F9018951F920F924A
:100D30000FB60F9211242F933F934F935F936F93AE
:100D40007F938F939F93AF93BF93EF93FF93E09124
:100D50002806F09129060995FF91EF91BF91AF9177
:100D60009F918F917F916F915F914F913F912F91C3
:100D70000F900FBE0F901F901895A0EBB0E09C91C4
:100D80009C7F9C93E1EBF0E09081977F90839C9116
:100D9000282F2370922B9C9390818470880F892B2D
:100DA00080830895E1EBF0E09081987F90839081BB
:100DB000892B8083089580E0F5DF1092B2000895BA
:100DC0008CE78093B30084E0EDCF089587E08093B3
:100DD000B30085E0E7CF0895E0E7F0E0808182602E
:100DE0008083089590E0FC013197EA30F10508F026
:100DF0003FC0EC5CFF4FAAC01092C50080ED80930D
:100E0000C40008951092C5008AE88093C400089534
:100E10001092C50088E68093C40008951092C50022
:100E200085E48093C40008951092C50084E3809304
:100E3000C40008951092C50083E28093C400089511
:100E40001092C50082E28093C40008951092C500FC
:100E500081E18093C40008951092C5008FE08093D3
:100E6000C40008951092C50087E08093C4000895DF
:100E700081E0B8CF0895B6DFE0ECF0E080818260D9
:100E80008083E1ECF0E0808188608083E2ECF0E038
:100E90008081866080830895E1ECF0E0808180624B
:100EA00080830895E1ECF0E080818F7D8083089558
:100EB0000F931F93CF93DF93662379F0EC0161507A
:100EC000062F10E00F5F1F4F080F191F69918CEE5E
:100ED00091E086DAC017D107C9F7DEDFDF91CF9145
:100EE0001F910F9108951F920F920FB60F92112428
:100EF0002F933F934F935F936F937F938F939F9322
:100F0000AF93BF93EF93FF93E0ECF0E080818062BA
:100F100080838CEE91E07CDA892B31F08CEE91E0CD
:100F20006BDA8093C60001C0BDDFFF91EF91BF91E6
:100F3000AF919F918F917F916F915F914F913F9171
:100F40002F910F900FBE0F901F901895EE0FFF1F5F
:100F50000590F491E02D09940F931F93CF93DF93A5
:100F60008230910510F482E090E0E0912E06F0913D
:100F70002F0620E030E0A0E0B0E0309719F140818A
:100F800051810281138148175907C8F084179507CA
:100F900069F4109731F012960C93129713961C93E4
:100FA00027C000932E0610932F0622C0211531056D
:100FB00019F04217530718F49A01BD01EF01DF0140
:100FC000F801DBCF21153105F9F0281B390B24304E
:100FD000310580F48A819B816115710521F0FB0147
:100FE0009383828304C090932F0680932E06FE0184
:100FF000329644C0FE01E20FF31F81939193225079
:101000003109398328833AC020912C0630912D066E
:10101000232B41F4209102013091030130932D06DE
:1010200020932C06209100013091010121153105FA
:1010300041F42DB73EB74091040150910501241BA6
:10104000350BE0912C06F0912D06E217F307A0F482
:101050002E1B3F0B2817390778F0AC014E5F5F4F0E
:101060002417350748F04E0F5F1F50932D0640930D
:101070002C068193919302C0E0E0F0E0CF01DF9174
:10108000CF911F910F910895CF93DF93009709F4AB
:1010900081C0FC01329713821282A0912E06B0917A
:1010A0002F06109781F420813181820F931F2091A8
:1010B0002C0630912D062817390751F5F0932D068F
:1010C000E0932C0667C0ED0120E030E0CE17DF078B
:1010D00040F44A815B819E0141155105F1F0EA011E
:1010E000F5CFD383C28340815181840F951FC817E8
:1010F000D90759F488819981840F951F02969183AD
:1011000080838A819B81938382832115310529F411
:10111000F0932F06E0932E063DC0E901FB83EA839E
:1011200049915991C40FD51FEC17FD0761F48081D7
:101130009181840F951F0296E901998388838281AA
:1011400093819B838A83E0E0F0E012968D919C91DD
:101150001397009719F0FD01DC01F7CF8D919C9159
:1011600011979D012E5F3F4F820F931F20912C06F8
:1011700030912D062817390769F4309729F4109219
:101180002F0610922E0602C013821282B0932D06F3
:10119000A0932C06DF91CF910895AEE0B0E0E2ED90
:1011A000F8E0AAC20D891E8986E08C831A83098320
:1011B0008FEF9FE79E838D83AE01475E5F4F6F8900
:1011C000788DCE01019608D0EF81F885E00FF11FF0
:1011D00010822E96E4E0ACC2ABE0B0E0E1EFF8E0C4
:1011E0007DC26C017B018A01FC011782168283811A
:1011F00081FFBFC1CE0101963C01F6019381F70149
:1012000093FD859193FF81917F01882309F4ADC1FE
:10121000853239F493FD859193FF81917F01853269
:1012200021F4B60190E0C0D1E8CF912C212C312CD3
:10123000FFE1F315D8F08B3279F038F4803279F091
:101240008332A1F4232D20611DC08D3261F08033E3
:1012500069F4232D216016C0832D8260382EE32D82
:10126000E4603E2E2AC0F32DF8601DC037FC2DC06F
:1012700020ED280F2A3040F08E32B9F436FC75C1CB
:10128000232D2064322E19C036FE06C08AE0989EB7
:10129000200D1124922E11C0EAE02E9E200D112463
:1012A000222EF32DF0623F2E08C08C3621F4832DC0
:1012B0008068382E02C0883641F4F70193FD85918D
:1012C00093FF81917F018111B3CF982F9F7D95541A
:1012D000933028F40C5F1F4F9FE399830DC0833632
:1012E00031F0833771F0833509F055C020C0F80123
:1012F000808189830E5F1F4F88248394912C530132
:1013000012C02801F2E04F0E511CF801A080B180FC
:1013100036FE03C0692D70E002C06FEF7FEFC5019C
:1013200038D14C018201F32DFF773F2E15C02801E3
:1013300022E0420E511CF801A080B18036FE03C0AD
:10134000692D70E002C06FEF7FEFC50117D14C012E
:10135000F32DF0683F2E820133FC19C0822D90E0FE
:1013600088169906A0F4B60180E290E01DD12A9477
:10137000F5CFF50137FC859137FE81915F01B6010C
:1013800090E012D121102A9421E0821A9108811450
:10139000910479F7E1C0843611F0893639F5F80106
:1013A00037FE07C060817181828193810C5F1F4F7E
:1013B00008C060817181072E000C880B990B0E5FAD
:1013C0001F4FF32DFF763F2E97FF09C09095809514
:1013D000709561957F4F8F4F9F4FF0683F2E2AE0A9
:1013E00030E0A3011DD1882E861844C0853731F422
:1013F000232D2F7EB22E2AE030E025C0932D997F39
:10140000B92E8F36C1F018F4883579F0AEC0803728
:1014100019F0883721F0A9C0E92FE061BE2EB4FE93
:101420000DC0FB2DF460BF2E09C034FE0AC0292F69
:101430002660B22E06C028E030E005C020E130E092
:1014400002C020E132E0F801B7FE07C0608171817F
:10145000828193810C5F1F4F06C06081718180E0A3
:1014600090E00E5F1F4FA301DBD0882E8618FB2D66
:10147000FF773F2E36FE0DC0232D2E7FA22E89141E
:1014800058F434FE0BC032FC09C0832D8E7EA82E8A
:1014900005C0B82CA32C03C0B82C01C0B92CA4FEE5
:1014A0000FC0FE01E80DF11D8081803321F49A2DDB
:1014B000997EA92E09C0A2FE06C0B394B39404C0BD
:1014C0008A2D867809F0B394A3FC10C0A0FE06C054
:1014D000B21480F4280C922C9B180DC0B21458F44E
:1014E000B60180E290E060D0B394F8CFB21418F463
:1014F0002B1802C0982C212CA4FE0FC0B60180E34B
:1015000090E052D0A2FE16C0A1FC03C088E790E094
:1015100002C088E590E0B6010CC08A2D867851F0B3
:10152000A1FE02C08BE201C080E2A7FC8DE2B60101
:1015300090E03AD0891430F4B60180E390E034D0E2
:101540009A94F8CF8A94F301E80DF11D8081B601D9
:1015500090E02AD08110F6CF222009F44ECEB601B9
:1015600080E290E021D02A94F7CFF601868197811E
:1015700002C08FEF9FEF2B96E2E1CCC0FC010590FB
:10158000615070400110D8F7809590958E0F9F1F85
:101590000895FC016150704001900110D8F78095CA
:1015A00090958E0F9F1F08950F931F93CF93DF93F6
:1015B000FB01238121FD03C08FEF9FEF2CC022FF91
:1015C00016C046815781248135814217530744F460
:1015D000A081B1819D012F5F3F4F318320838C9388
:1015E000268137812F5F3F4F3783268314C08B01BD
:1015F000EC01FB010084F185E02D0995892BE1F6D2
:10160000D80116968D919C911797019617969C93E9
:101610008E931697CE01DF91CF911F910F91089570
:10162000FA01AA27283051F1203181F1E8946F9313
:101630006E7F6E5F7F4F8F4F9F4FAF4FB1E03ED0B9
:10164000B4E03CD0670F781F891F9A1FA11D680F57
:10165000791F8A1F911DA11D6A0F711D811D911D8A
:10166000A11D20D009F468943F912AE0269F1124FF
:101670003019305D3193DEF6CF010895462F477063
:10168000405D4193B3E00FD0C9F7F6CF462F4F70BE
:10169000405D4A3318F0495D31FD4052419302D01C
:1016A000A9F7EACFB4E0A6959795879577956795C2
:1016B000BA95C9F700976105710508959B01AC01C2
:1016C0000A2E06945795479537952795BA95C9F7E9
:1016D000620F731F841F951FA01D08952F923F92C4
:1016E0004F925F926F927F928F929F92AF92BF9232
:1016F000CF92DF92EF92FF920F931F93CF93DF93DE
:10170000CDB7DEB7CA1BDB0B0FB6F894DEBF0FBE3A
:10171000CDBF09942A88398848885F846E847D8487
:101720008C849B84AA84B984C884DF80EE80FD8089
:101730000C811B81AA81B981CE0FD11D0FB6F894FF
:10174000DEBF0FBECDBFED01089510E0CFEBD0E0BE
:1017500003C0FE01FBDB2196C03CD107D1F7F89412
:02176000FFCFB9
:10176200000030062000D0076001B001A801A001EE
:1017720098019001880180017801700168012A00B6
:1017820029002B000200232532693A25632533699B
:101792002E2530346964656743204572723A2025EC
:1017A200630D0A000D0A0D0A002121557074696D3E
:1017B20065205B735D3D20252D313069200D0A00C7
:1017C2003B192B18000000C32893ADC30300007C13
:1017D2002871F39B030000C8283ED0C3030000EB2E
:1017E200289EADC30300003628CC9EC3030000BC74
:1017F200280CBFC3030000162804DEC30300006BDD
:1018020028A8B0C3030000F928A0C9C3030000C67A
:08181200287EA0BC05000010B7
:00000001FF
